{
  "abi": [
    {
      "inputs": [
        {
          "internalType": "string",
          "name": "_name",
          "type": "string"
        },
        {
          "internalType": "string",
          "name": "_symbol",
          "type": "string"
        }
      ],
      "stateMutability": "nonpayable",
      "type": "constructor"
    },
    {
      "inputs": [],
      "name": "ApprovalCallerNotOwnerNorApproved",
      "type": "error"
    },
    {
      "inputs": [],
      "name": "ApprovalQueryForNonexistentToken",
      "type": "error"
    },
    {
      "inputs": [],
      "name": "ApprovalToCurrentOwner",
      "type": "error"
    },
    {
      "inputs": [],
      "name": "ApproveToCaller",
      "type": "error"
    },
    {
      "inputs": [],
      "name": "BalanceQueryForZeroAddress",
      "type": "error"
    },
    {
      "inputs": [],
      "name": "MintToZeroAddress",
      "type": "error"
    },
    {
      "inputs": [],
      "name": "MintZeroQuantity",
      "type": "error"
    },
    {
      "inputs": [],
      "name": "OwnerQueryForNonexistentToken",
      "type": "error"
    },
    {
      "inputs": [],
      "name": "SvgNft__TokenUriNotFound",
      "type": "error"
    },
    {
      "inputs": [],
      "name": "TransferCallerNotOwnerNorApproved",
      "type": "error"
    },
    {
      "inputs": [],
      "name": "TransferFromIncorrectOwner",
      "type": "error"
    },
    {
      "inputs": [],
      "name": "TransferToNonERC721ReceiverImplementer",
      "type": "error"
    },
    {
      "inputs": [],
      "name": "TransferToZeroAddress",
      "type": "error"
    },
    {
      "inputs": [],
      "name": "URIQueryForNonexistentToken",
      "type": "error"
    },
    {
      "anonymous": false,
      "inputs": [
        {
          "indexed": true,
          "internalType": "address",
          "name": "owner",
          "type": "address"
        },
        {
          "indexed": true,
          "internalType": "address",
          "name": "approved",
          "type": "address"
        },
        {
          "indexed": true,
          "internalType": "uint256",
          "name": "tokenId",
          "type": "uint256"
        }
      ],
      "name": "Approval",
      "type": "event"
    },
    {
      "anonymous": false,
      "inputs": [
        {
          "indexed": true,
          "internalType": "address",
          "name": "owner",
          "type": "address"
        },
        {
          "indexed": true,
          "internalType": "address",
          "name": "operator",
          "type": "address"
        },
        {
          "indexed": false,
          "internalType": "bool",
          "name": "approved",
          "type": "bool"
        }
      ],
      "name": "ApprovalForAll",
      "type": "event"
    },
    {
      "anonymous": false,
      "inputs": [
        {
          "indexed": false,
          "internalType": "uint256",
          "name": "_fromTokenId",
          "type": "uint256"
        },
        {
          "indexed": false,
          "internalType": "uint256",
          "name": "_toTokenId",
          "type": "uint256"
        }
      ],
      "name": "BatchMetadataUpdate",
      "type": "event"
    },
    {
      "anonymous": false,
      "inputs": [
        {
          "indexed": false,
          "internalType": "string",
          "name": "prevURI",
          "type": "string"
        },
        {
          "indexed": false,
          "internalType": "string",
          "name": "newURI",
          "type": "string"
        }
      ],
      "name": "ContractURIUpdated",
      "type": "event"
    },
    {
      "anonymous": false,
      "inputs": [
        {
          "indexed": true,
          "internalType": "address",
          "name": "newRoyaltyRecipient",
          "type": "address"
        },
        {
          "indexed": false,
          "internalType": "uint256",
          "name": "newRoyaltyBps",
          "type": "uint256"
        }
      ],
      "name": "DefaultRoyalty",
      "type": "event"
    },
    {
      "anonymous": false,
      "inputs": [],
      "name": "MetadataFrozen",
      "type": "event"
    },
    {
      "anonymous": false,
      "inputs": [
        {
          "indexed": false,
          "internalType": "uint256",
          "name": "tokenId",
          "type": "uint256"
        },
        {
          "indexed": false,
          "internalType": "address",
          "name": "owner",
          "type": "address"
        }
      ],
      "name": "Minted",
      "type": "event"
    },
    {
      "anonymous": false,
      "inputs": [
        {
          "indexed": true,
          "internalType": "address",
          "name": "prevOwner",
          "type": "address"
        },
        {
          "indexed": true,
          "internalType": "address",
          "name": "newOwner",
          "type": "address"
        }
      ],
      "name": "OwnerUpdated",
      "type": "event"
    },
    {
      "anonymous": false,
      "inputs": [
        {
          "indexed": true,
          "internalType": "uint256",
          "name": "tokenId",
          "type": "uint256"
        },
        {
          "indexed": true,
          "internalType": "address",
          "name": "royaltyRecipient",
          "type": "address"
        },
        {
          "indexed": false,
          "internalType": "uint256",
          "name": "royaltyBps",
          "type": "uint256"
        }
      ],
      "name": "RoyaltyForToken",
      "type": "event"
    },
    {
      "anonymous": false,
      "inputs": [
        {
          "indexed": true,
          "internalType": "address",
          "name": "from",
          "type": "address"
        },
        {
          "indexed": true,
          "internalType": "address",
          "name": "to",
          "type": "address"
        },
        {
          "indexed": true,
          "internalType": "uint256",
          "name": "tokenId",
          "type": "uint256"
        }
      ],
      "name": "Transfer",
      "type": "event"
    },
    {
      "inputs": [
        {
          "internalType": "address",
          "name": "to",
          "type": "address"
        },
        {
          "internalType": "uint256",
          "name": "tokenId",
          "type": "uint256"
        }
      ],
      "name": "approve",
      "outputs": [],
      "stateMutability": "nonpayable",
      "type": "function"
    },
    {
      "inputs": [
        {
          "internalType": "address",
          "name": "owner",
          "type": "address"
        }
      ],
      "name": "balanceOf",
      "outputs": [
        {
          "internalType": "uint256",
          "name": "",
          "type": "uint256"
        }
      ],
      "stateMutability": "view",
      "type": "function"
    },
    {
      "inputs": [
        {
          "internalType": "uint256",
          "name": "",
          "type": "uint256"
        }
      ],
      "name": "batchFrozen",
      "outputs": [
        {
          "internalType": "bool",
          "name": "",
          "type": "bool"
        }
      ],
      "stateMutability": "view",
      "type": "function"
    },
    {
      "inputs": [
        {
          "internalType": "address",
          "name": "_to",
          "type": "address"
        },
        {
          "internalType": "uint256",
          "name": "_quantity",
          "type": "uint256"
        },
        {
          "internalType": "string",
          "name": "_baseURI",
          "type": "string"
        },
        {
          "internalType": "bytes",
          "name": "_data",
          "type": "bytes"
        }
      ],
      "name": "batchMintTo",
      "outputs": [],
      "stateMutability": "nonpayable",
      "type": "function"
    },
    {
      "inputs": [
        {
          "internalType": "uint256",
          "name": "_tokenId",
          "type": "uint256"
        }
      ],
      "name": "burn",
      "outputs": [],
      "stateMutability": "nonpayable",
      "type": "function"
    },
    {
      "inputs": [],
      "name": "contractURI",
      "outputs": [
        {
          "internalType": "string",
          "name": "",
          "type": "string"
        }
      ],
      "stateMutability": "view",
      "type": "function"
    },
    {
      "inputs": [
        {
          "internalType": "uint256",
          "name": "_tokenId",
          "type": "uint256"
        },
        {
          "internalType": "uint256",
          "name": "_durationMs",
          "type": "uint256"
        }
      ],
      "name": "dfChangeDuration",
      "outputs": [],
      "stateMutability": "nonpayable",
      "type": "function"
    },
    {
      "inputs": [
        {
          "internalType": "uint256",
          "name": "tokenId",
          "type": "uint256"
        }
      ],
      "name": "getApproved",
      "outputs": [
        {
          "internalType": "address",
          "name": "",
          "type": "address"
        }
      ],
      "stateMutability": "view",
      "type": "function"
    },
    {
      "inputs": [],
      "name": "getBaseURICount",
      "outputs": [
        {
          "internalType": "uint256",
          "name": "",
          "type": "uint256"
        }
      ],
      "stateMutability": "view",
      "type": "function"
    },
    {
      "inputs": [
        {
          "internalType": "uint256",
          "name": "_index",
          "type": "uint256"
        }
      ],
      "name": "getBatchIdAtIndex",
      "outputs": [
        {
          "internalType": "uint256",
          "name": "",
          "type": "uint256"
        }
      ],
      "stateMutability": "view",
      "type": "function"
    },
    {
      "inputs": [],
      "name": "getDefaultRoyaltyInfo",
      "outputs": [
        {
          "internalType": "address",
          "name": "",
          "type": "address"
        },
        {
          "internalType": "uint16",
          "name": "",
          "type": "uint16"
        }
      ],
      "stateMutability": "view",
      "type": "function"
    },
    {
      "inputs": [
        {
          "internalType": "uint256",
          "name": "_tokenId",
          "type": "uint256"
        }
      ],
      "name": "getRoyaltyInfoForToken",
      "outputs": [
        {
          "internalType": "address",
          "name": "",
          "type": "address"
        },
        {
          "internalType": "uint16",
          "name": "",
          "type": "uint16"
        }
      ],
      "stateMutability": "view",
      "type": "function"
    },
    {
      "inputs": [
        {
          "internalType": "uint256",
          "name": "tokenId",
          "type": "uint256"
        }
      ],
      "name": "getTokenData",
      "outputs": [
        {
          "internalType": "address",
          "name": "",
          "type": "address"
        },
        {
          "internalType": "uint256",
          "name": "",
          "type": "uint256"
        },
        {
          "internalType": "uint256",
          "name": "",
          "type": "uint256"
        },
        {
          "internalType": "uint256",
          "name": "",
          "type": "uint256"
        }
      ],
      "stateMutability": "view",
      "type": "function"
    },
    {
      "inputs": [
        {
          "internalType": "address",
          "name": "owner",
          "type": "address"
        },
        {
          "internalType": "address",
          "name": "operator",
          "type": "address"
        }
      ],
      "name": "isApprovedForAll",
      "outputs": [
        {
          "internalType": "bool",
          "name": "",
          "type": "bool"
        }
      ],
      "stateMutability": "view",
      "type": "function"
    },
    {
      "inputs": [
        {
          "internalType": "address",
          "name": "_operator",
          "type": "address"
        },
        {
          "internalType": "uint256",
          "name": "_tokenId",
          "type": "uint256"
        }
      ],
      "name": "isApprovedOrOwner",
      "outputs": [
        {
          "internalType": "bool",
          "name": "isApprovedOrOwnerOf",
          "type": "bool"
        }
      ],
      "stateMutability": "view",
      "type": "function"
    },
    {
      "inputs": [
        {
          "internalType": "uint256",
          "name": "id",
          "type": "uint256"
        }
      ],
      "name": "makeSVG",
      "outputs": [
        {
          "internalType": "string",
          "name": "",
          "type": "string"
        }
      ],
      "stateMutability": "view",
      "type": "function"
    },
    {
      "inputs": [
        {
          "internalType": "address",
          "name": "_to",
          "type": "address"
        },
        {
          "internalType": "string",
          "name": "_tokenURI",
          "type": "string"
        }
      ],
      "name": "mintTo",
      "outputs": [],
      "stateMutability": "nonpayable",
      "type": "function"
    },
    {
      "inputs": [
        {
          "internalType": "bytes[]",
          "name": "data",
          "type": "bytes[]"
        }
      ],
      "name": "multicall",
      "outputs": [
        {
          "internalType": "bytes[]",
          "name": "results",
          "type": "bytes[]"
        }
      ],
      "stateMutability": "nonpayable",
      "type": "function"
    },
    {
      "inputs": [],
      "name": "name",
      "outputs": [
        {
          "internalType": "string",
          "name": "",
          "type": "string"
        }
      ],
      "stateMutability": "view",
      "type": "function"
    },
    {
      "inputs": [],
      "name": "nextTokenIdToMint",
      "outputs": [
        {
          "internalType": "uint256",
          "name": "",
          "type": "uint256"
        }
      ],
      "stateMutability": "view",
      "type": "function"
    },
    {
      "inputs": [],
      "name": "owner",
      "outputs": [
        {
          "internalType": "address",
          "name": "",
          "type": "address"
        }
      ],
      "stateMutability": "view",
      "type": "function"
    },
    {
      "inputs": [
        {
          "internalType": "uint256",
          "name": "tokenId",
          "type": "uint256"
        }
      ],
      "name": "ownerOf",
      "outputs": [
        {
          "internalType": "address",
          "name": "",
          "type": "address"
        }
      ],
      "stateMutability": "view",
      "type": "function"
    },
    {
      "inputs": [
        {
          "internalType": "uint256",
          "name": "tokenId",
          "type": "uint256"
        },
        {
          "internalType": "uint256",
          "name": "salePrice",
          "type": "uint256"
        }
      ],
      "name": "royaltyInfo",
      "outputs": [
        {
          "internalType": "address",
          "name": "receiver",
          "type": "address"
        },
        {
          "internalType": "uint256",
          "name": "royaltyAmount",
          "type": "uint256"
        }
      ],
      "stateMutability": "view",
      "type": "function"
    },
    {
      "inputs": [
        {
          "internalType": "address",
          "name": "from",
          "type": "address"
        },
        {
          "internalType": "address",
          "name": "to",
          "type": "address"
        },
        {
          "internalType": "uint256",
          "name": "tokenId",
          "type": "uint256"
        }
      ],
      "name": "safeTransferFrom",
      "outputs": [],
      "stateMutability": "nonpayable",
      "type": "function"
    },
    {
      "inputs": [
        {
          "internalType": "address",
          "name": "from",
          "type": "address"
        },
        {
          "internalType": "address",
          "name": "to",
          "type": "address"
        },
        {
          "internalType": "uint256",
          "name": "tokenId",
          "type": "uint256"
        },
        {
          "internalType": "bytes",
          "name": "_data",
          "type": "bytes"
        }
      ],
      "name": "safeTransferFrom",
      "outputs": [],
      "stateMutability": "nonpayable",
      "type": "function"
    },
    {
      "inputs": [
        {
          "internalType": "address",
          "name": "operator",
          "type": "address"
        },
        {
          "internalType": "bool",
          "name": "approved",
          "type": "bool"
        }
      ],
      "name": "setApprovalForAll",
      "outputs": [],
      "stateMutability": "nonpayable",
      "type": "function"
    },
    {
      "inputs": [
        {
          "internalType": "string",
          "name": "_uri",
          "type": "string"
        }
      ],
      "name": "setContractURI",
      "outputs": [],
      "stateMutability": "nonpayable",
      "type": "function"
    },
    {
      "inputs": [
        {
          "internalType": "address",
          "name": "_royaltyRecipient",
          "type": "address"
        },
        {
          "internalType": "uint256",
          "name": "_royaltyBps",
          "type": "uint256"
        }
      ],
      "name": "setDefaultRoyaltyInfo",
      "outputs": [],
      "stateMutability": "nonpayable",
      "type": "function"
    },
    {
      "inputs": [
        {
          "internalType": "address",
          "name": "_newOwner",
          "type": "address"
        }
      ],
      "name": "setOwner",
      "outputs": [],
      "stateMutability": "nonpayable",
      "type": "function"
    },
    {
      "inputs": [
        {
          "internalType": "uint256",
          "name": "_tokenId",
          "type": "uint256"
        },
        {
          "internalType": "address",
          "name": "_recipient",
          "type": "address"
        },
        {
          "internalType": "uint256",
          "name": "_bps",
          "type": "uint256"
        }
      ],
      "name": "setRoyaltyInfoForToken",
      "outputs": [],
      "stateMutability": "nonpayable",
      "type": "function"
    },
    {
      "inputs": [
        {
          "internalType": "string",
          "name": "str",
          "type": "string"
        }
      ],
      "name": "splitHash",
      "outputs": [
        {
          "internalType": "string[10]",
          "name": "",
          "type": "string[10]"
        }
      ],
      "stateMutability": "pure",
      "type": "function"
    },
    {
      "inputs": [
        {
          "internalType": "bytes4",
          "name": "interfaceId",
          "type": "bytes4"
        }
      ],
      "name": "supportsInterface",
      "outputs": [
        {
          "internalType": "bool",
          "name": "",
          "type": "bool"
        }
      ],
      "stateMutability": "view",
      "type": "function"
    },
    {
      "inputs": [],
      "name": "symbol",
      "outputs": [
        {
          "internalType": "string",
          "name": "",
          "type": "string"
        }
      ],
      "stateMutability": "view",
      "type": "function"
    },
    {
      "inputs": [
        {
          "internalType": "string",
          "name": "str",
          "type": "string"
        }
      ],
      "name": "toUint256",
      "outputs": [
        {
          "internalType": "uint256",
          "name": "value",
          "type": "uint256"
        }
      ],
      "stateMutability": "pure",
      "type": "function"
    },
    {
      "inputs": [
        {
          "internalType": "uint256",
          "name": "_id",
          "type": "uint256"
        }
      ],
      "name": "tokenURI",
      "outputs": [
        {
          "internalType": "string",
          "name": "",
          "type": "string"
        }
      ],
      "stateMutability": "view",
      "type": "function"
    },
    {
      "inputs": [],
      "name": "totalSupply",
      "outputs": [
        {
          "internalType": "uint256",
          "name": "",
          "type": "uint256"
        }
      ],
      "stateMutability": "view",
      "type": "function"
    },
    {
      "inputs": [
        {
          "internalType": "address",
          "name": "from",
          "type": "address"
        },
        {
          "internalType": "address",
          "name": "to",
          "type": "address"
        },
        {
          "internalType": "uint256",
          "name": "tokenId",
          "type": "uint256"
        }
      ],
      "name": "transferFrom",
      "outputs": [],
      "stateMutability": "nonpayable",
      "type": "function"
    }
  ],
  "bytecode": {
    "object": "0x610ae060405261013361098081815260809182919062003ea36109a039815260200160405180610160016040528061013d81526020016200413461013d913981526020016040518061018001604052806101428152602001620059c66101429139815260200160405180610180016040528061014a8152602001620048f461014a91398152602001604051806101600160405280610133815260200162004a3e610133913981526020016040518061016001604052806101348152602001620047c06101349139815260200160405180610180016040528061015181526020016200451d6101519139815260200160405180610180016040528061014c81526020016200587a61014c91398152602001604051806101800160405280610155815260200162004f6f6101559139815260200160405180610180016040528061015d815260200162004e1261015d9139815260200160405180610160016040528061013b81526020016200427161013b91398152602001604051806101800160405280610159815260200162004cb961015991398152602001604051806101800160405280610148815260200162004b7161014891398152602001604051806101800160405280610146815260200162005734610146913981526020016040518061018001604052806101488152602001620050c46101489139815260200160405180610160016040528061013281526020016200535e6101329139815260200160405180610180016040528061015281526020016200520c6101529139815260200160405180610160016040528061013d81526020016200413461013d913981526020016040518061018001604052806101428152602001620059c66101429139815260200160405180610180016040528061014a8152602001620048f461014a91398152602001604051806101600160405280610133815260200162004a3e610133913981526020016040518061016001604052806101348152602001620047c06101349139815260200160405180610180016040528061015181526020016200451d6101519139815260200160405180610180016040528061014c81526020016200587a61014c91398152602001604051806101800160405280610155815260200162004f6f6101559139815260200160405180610180016040528061015d815260200162004e1261015d9139815260200160405180610160016040528061013b81526020016200427161013b91398152602001604051806101800160405280610159815260200162004cb961015991398152602001604051806101800160405280610148815260200162004b7161014891398152602001604051806101800160405280610146815260200162005734610146913981526020016040518061018001604052806101488152602001620050c46101489139815260200160405180610160016040528061013281526020016200535e6101329139815260200160405180610180016040528061015281526020016200520c61015291398152602001604051806101800160405280610153815260200162005490610153913981526020016040518061018001604052806101518152602001620055e361015191398152602001604051806101800160405280610156815260200162005b0861015691398152602001604051806101a001604052806101718152602001620043ac6101719139815260200160405180610180016040528061015281526020016200466e61015291398152602001604051806101800160405280610153815260200162005490610153913981526020016040518061018001604052806101518152602001620055e361015191398152602001604051806101800160405280610156815260200162005b0861015691398152602001604051806101a001604052806101718152602001620043ac61017191398152602001604051806101800160405280610153815260200162005490610153913981526020016040518061018001604052806101518152602001620055e361015191398152602001604051806101800160405280610156815260200162005b0861015691398152602001604051806101a001604052806101718152602001620043ac6101719139815260200160405180610180016040528061015281526020016200466e61015291398152602001604051806101800160405280610153815260200162005490610153913981526020016040518061018001604052806101518152602001620055e361015191398152602001604051806101800160405280610153815260200162005490610153913981526020016040518061018001604052806101518152602001620055e361015191398152602001604051806101800160405280610156815260200162005b0861015691398152602001604051806101a001604052806101718152602001620043ac6101719139815260200160405180610180016040528061015281526020016200466e61015291398152602001604051806101800160405280610156815260200162005b08610156913981526020016040518061018001604052806101518152602001620055e361015191398152602001604051806101800160405280610156815260200162005b08610156913981526020016040518061018001604052806101518152602001620055e361015191398152602001604051806101800160405280610156815260200162005b0861015691398152602001604051806101a001604052806101718152602001620043ac61017191398152602001604051806101800160405280610156815260200162005b0861015691398152602001604051806101a001604052806101718152602001620043ac61017191398152602001604051806101a001604052806101718152602001620043ac6101719139815260200160405180610180016040528061015281526020016200466e61015291398152602001604051806101800160405280610153815260200162005490610153913981526020016040518061018001604052806101518152602001620055e361015191398152602001604051806101800160405280610156815260200162005b0861015691398152602001604051806101a001604052806101718152602001620043ac61017191398152602001604051806101800160405280610156815260200162005b0861015691398152602001604051806101a001604052806101718152602001620043ac6101719139815260200160405180610180016040528061015281526020016200466e6101529139815260200160405180610180016040528061015e815260200162003fd661015e913990526200099c90601290604862000b23565b50348015620009aa57600080fd5b5060405162005c5e38038062005c5e833981016040819052620009cd9162000cbf565b33828282600083836002620009e3838262000db8565b506003620009f2828262000db8565b5050600080555062000a048562000a26565b62000a19826001600160801b03831662000a78565b5050505050505062000e84565b600980546001600160a01b038381166001600160a01b0319831681179093556040519116919082907f8292fce18fa69edf4db7b94ea2e58241df0ae57f97e0a6c9b29067028bf92d7690600090a35050565b61271081111562000ac15760405162461bcd60e51b815260206004820152600f60248201526e45786365656473206d61782062707360881b604482015260640160405180910390fd5b600a80546001600160a01b0384166001600160b01b03199091168117600160a01b61ffff851602179091556040518281527f90d7ec04bcb8978719414f82e52e4cb651db41d0e6f8cea6118c2191e6183adb9060200160405180910390a25050565b82805482825590600052602060002090810192821562000b6e579160200282015b8281111562000b6e578251829062000b5d908262000db8565b509160200191906001019062000b44565b5062000b7c92915062000b80565b5090565b8082111562000b7c57600062000b97828262000ba1565b5060010162000b80565b50805462000baf9062000d29565b6000825580601f1062000bc0575050565b601f01602090049060005260206000209081019062000be0919062000be3565b50565b5b8082111562000b7c576000815560010162000be4565b634e487b7160e01b600052604160045260246000fd5b600082601f83011262000c2257600080fd5b81516001600160401b038082111562000c3f5762000c3f62000bfa565b604051601f8301601f19908116603f0116810190828211818310171562000c6a5762000c6a62000bfa565b8160405283815260209250868385880101111562000c8757600080fd5b600091505b8382101562000cab578582018301518183018401529082019062000c8c565b600093810190920192909252949350505050565b6000806040838503121562000cd357600080fd5b82516001600160401b038082111562000ceb57600080fd5b62000cf98683870162000c10565b9350602085015191508082111562000d1057600080fd5b5062000d1f8582860162000c10565b9150509250929050565b600181811c9082168062000d3e57607f821691505b60208210810362000d5f57634e487b7160e01b600052602260045260246000fd5b50919050565b601f82111562000db357600081815260208120601f850160051c8101602086101562000d8e5750805b601f850160051c820191505b8181101562000daf5782815560010162000d9a565b5050505b505050565b81516001600160401b0381111562000dd45762000dd462000bfa565b62000dec8162000de5845462000d29565b8462000d65565b602080601f83116001811462000e24576000841562000e0b5750858301515b600019600386901b1c1916600185901b17855562000daf565b600085815260208120601f198616915b8281101562000e555788860151825594840194600190910190840162000e34565b508582101562000e745787850151600019600388901b60f8161c191681555b5050505050600190811b01905550565b61300f8062000e946000396000f3fe608060405234801561001057600080fd5b50600436106102265760003560e01c806363b45e2d11610130578063a22cb465116100b8578063b88d4fde1161007c578063b88d4fde1461057d578063c1709d9214610590578063c87b56dd146105b0578063e8a3d485146105c3578063e985e9c5146105cb57600080fd5b8063a22cb4651461048e578063a2baae58146104a1578063ac9650d8146104b4578063b09afec1146104d4578063b24f2d391461055f57600080fd5b806383040532116100ff578063830405321461042c5780638da5cb5b1461044f578063938e3d7b1461046057806395d89b41146104735780639bcf7a151461047b57600080fd5b806363b45e2d146103eb57806370121b71146103f357806370a0823114610406578063754a81d91461041957600080fd5b80632a55205a116101b357806342966c681161018257806342966c681461036a578063430c20811461037d5780634cc157df14610390578063600dd5ea146103c55780636352211e146103d857600080fd5b80632a55205a1461030a5780632baf20ac1461033c5780633b1475a71461034f57806342842e0e1461035757600080fd5b8063095ea7b3116101fa578063095ea7b3146102a857806313af4035146102bb57806318160ddd146102ce57806323b872dd146102e45780632419f51b146102f757600080fd5b806275a3171461022b57806301ffc9a71461024057806306fdde0314610268578063081812fc1461027d575b600080fd5b61023e6102393660046124e0565b610607565b005b61025361024e366004612543565b6107ac565b60405190151581526020015b60405180910390f35b610270610819565b60405161025f91906125b0565b61029061028b3660046125c3565b6108ab565b6040516001600160a01b03909116815260200161025f565b61023e6102b63660046125dc565b6108ef565b61023e6102c9366004612606565b610975565b600154600054035b60405190815260200161025f565b61023e6102f2366004612621565b6109a5565b6102d66103053660046125c3565b6109b0565b61031d61031836600461265d565b610a1e565b604080516001600160a01b03909316835260208301919091520161025f565b61027061034a3660046125c3565b610a5b565b6000546102d6565b61023e610365366004612621565b610b58565b61023e6103783660046125c3565b610b73565b61025361038b3660046125dc565b610b7e565b6103a361039e3660046125c3565b610bfd565b604080516001600160a01b03909316835261ffff90911660208301520161025f565b61023e6103d33660046125dc565b610c68565b6102906103e63660046125c3565b610c9a565b600c546102d6565b6102d661040136600461267f565b610cac565b6102d6610414366004612606565b610ce1565b61023e6104273660046126b3565b610d2f565b61025361043a3660046125c3565b600e6020526000908152604090205460ff1681565b6009546001600160a01b0316610290565b61023e61046e36600461267f565b610d9d565b610270610dca565b61023e610489366004612730565b610dd9565b61023e61049c366004612755565b610e08565b61023e6104af36600461265d565b610e9d565b6104c76104c2366004612791565b610f1a565b60405161025f9190612805565b6105356104e23660046125c3565b600090815260116020908152604091829020825160808101845281546001600160a01b03168082526001830154938201849052600283015494820185905260039092015460609091018190529093919291565b604080516001600160a01b039095168552602085019390935291830152606082015260800161025f565b600a546001600160a01b03811690600160a01b900461ffff166103a3565b61023e61058b366004612867565b61100e565b6105a361059e36600461267f565b611052565b60405161025f91906128c2565b6102706105be3660046125c3565b611228565b6102706112bc565b6102536105d9366004612910565b6001600160a01b03918216600090815260076020908152604080832093909416825291909152205460ff1690565b61060f61134a565b61065a5760405162461bcd60e51b81526020600482015260176024820152762737ba1030baba3437b934bd32b2103a379036b4b73a1760491b60448201526064015b60405180910390fd5b6000805460408051608081018252338152602080820185815242838501908152611b5860608501908152868852601190935293909520825181546001600160a01b0319166001600160a01b0390911617815594516001860155915160028501559051600390930192909255906106cf82611228565b6000838152601060205260409020906106e890826129cb565b506000828152601060205260409020805461078b91849161070890612943565b80601f016020809104026020016040519081016040528092919081815260200182805461073490612943565b80156107815780601f1061075657610100808354040283529160200191610781565b820191906000526020600020905b81548152906001019060200180831161076457829003601f168201915b5050505050611377565b6107a6846001604051806020016040528060008152506113e9565b50505050565b60006301ffc9a760e01b6001600160e01b0319831614806107dd57506380ac58cd60e01b6001600160e01b03198316145b806107f85750635b5e139f60e01b6001600160e01b03198316145b8061081357506001600160e01b0319821663152a902d60e11b145b92915050565b60606002805461082890612943565b80601f016020809104026020016040519081016040528092919081815260200182805461085490612943565b80156108a15780601f10610876576101008083540402835291602001916108a1565b820191906000526020600020905b81548152906001019060200180831161088457829003601f168201915b5050505050905090565b60006108b68261158c565b6108d3576040516333d1c03960e21b815260040160405180910390fd5b506000908152600660205260409020546001600160a01b031690565b60006108fa82610c9a565b9050806001600160a01b0316836001600160a01b03160361092e5760405163250fdee360e21b815260040160405180910390fd5b336001600160a01b038216146109655761094881336105d9565b610965576040516367d9dca160e11b815260040160405180910390fd5b6109708383836115b7565b505050565b61097d61134a565b6109995760405162461bcd60e51b815260040161065190612a8a565b6109a281611613565b50565b610970838383611665565b60006109bb600c5490565b82106109f95760405162461bcd60e51b815260206004820152600d60248201526c092dcecc2d8d2c840d2dcc8caf609b1b6044820152606401610651565b600c8281548110610a0c57610a0c612ab2565b90600052602060002001549050919050565b600080600080610a2d86610bfd565b90945084925061ffff169050612710610a468287612ade565b610a509190612af5565b925050509250929050565b6060600060128381548110610a7257610a72612ab2565b906000526020600020018054610a8790612943565b80601f0160208091040260200160405190810160405280929190818152602001828054610ab390612943565b8015610b005780601f10610ad557610100808354040283529160200191610b00565b820191906000526020600020905b815481529060010190602001808311610ae357829003601f168201915b5050506000868152601160205260408120600381015494955093909250610b279150611840565b905060008382604051602001610b3e929190612b17565b60408051601f198184030181529190529695505050505050565b6109708383836040518060200160405280600081525061100e565b6109a281600161196b565b600080610b8a83610c9a565b9050806001600160a01b0316846001600160a01b03161480610bd157506001600160a01b0380821660009081526007602090815260408083209388168352929052205460ff165b80610bf55750836001600160a01b0316610bea846108ab565b6001600160a01b0316145b949350505050565b6000818152600b60209081526040808320815180830190925280546001600160a01b031680835260019091015492820192909252829115610c445780516020820151610c5e565b600a546001600160a01b03811690600160a01b900461ffff165b9250925050915091565b610c7061134a565b610c8c5760405162461bcd60e51b815260040161065190612a8a565b610c968282611b1e565b5050565b6000610ca582611bc4565b5192915050565b602081015181610cda7d0172ebad6ddc73c86d67c5faa71c245689c107950240000000000000000083612af5565b9392505050565b60006001600160a01b038216610d0a576040516323d3ad8160e21b815260040160405180910390fd5b506001600160a01b03166000908152600560205260409020546001600160401b031690565b610d3761134a565b610d7d5760405162461bcd60e51b81526020600482015260176024820152762737ba1030baba3437b934bd32b2103a379036b4b73a1760491b6044820152606401610651565b610d90610d8960005490565b8484611cde565b50506107a68484836113e9565b610da561134a565b610dc15760405162461bcd60e51b815260040161065190612a8a565b6109a281611d42565b60606003805461082890612943565b610de161134a565b610dfd5760405162461bcd60e51b815260040161065190612a8a565b610970838383611e1e565b336001600160a01b03831603610e315760405163b06307db60e01b815260040160405180910390fd5b3360008181526007602090815260408083206001600160a01b03871680855290835292819020805460ff191686151590811790915590519081529192917f17307eab39ab6107e8899845ad3d59bd9653f200f220920489ca2b5937696c31910160405180910390a35050565b600082815260116020526040902080546001600160a01b03163314610f135760405162461bcd60e51b815260206004820152602660248201527f4f6e6c7920746865206f776e65722063616e206368616e6765207468652064756044820152653930ba34b7b760d11b6064820152608401610651565b6003015550565b6060816001600160401b03811115610f3457610f3461243e565b604051908082528060200260200182016040528015610f6757816020015b6060815260200190600190039081610f525790505b50905060005b8281101561100757610fd730858584818110610f8b57610f8b612ab2565b9050602002810190610f9d9190612ca8565b8080601f016020809104026020016040519081016040528093929190818152602001838380828437600092019190915250611ee792505050565b828281518110610fe957610fe9612ab2565b60200260200101819052508080610fff90612cf5565b915050610f6d565b5092915050565b611019848484611665565b6001600160a01b0383163b156107a65761103584848484611f0c565b6107a6576040516368d2bf6b60e11b815260040160405180910390fd5b61105a6123fa565b6110626123fa565b6000611098846040516020016110789190612d0e565b6040516020818303038152906040528051906020012060001c6020611ff7565b905080600260005b600a81101561121d578282815181106110bb576110bb612ab2565b01602001516001600160f81b031916836110d6846001612d2a565b815181106110e6576110e6612ab2565b01602001516001600160f81b03191684611101856002612d2a565b8151811061111157611111612ab2565b01602001516001600160f81b0319168561112c866003612d2a565b8151811061113c5761113c612ab2565b01602001516001600160f81b03191686611157876004612d2a565b8151811061116757611167612ab2565b01602001516001600160f81b03191687611182886005612d2a565b8151811061119257611192612ab2565b016020908101516040516001600160f81b03199788169281019290925294861660218201529285166022840152908416602383015283166024820152911660258201526026016040516020818303038152906040528582600a81106111f9576111f9612ab2565b6020020152611209826006612d2a565b91508061121581612cf5565b9150506110a0565b509295945050505050565b600081815260116020526040812060038101546060929061124890611840565b9050600061129061125886611840565b61126961126488610a5b565b612192565b8460405160200161127c93929190612d3d565b604051602081830303815290604052612192565b9050806040516020016112a39190612e4c565b6040516020818303038152906040529350505050919050565b600880546112c990612943565b80601f01602080910402602001604051908101604052809291908181526020018280546112f590612943565b80156113425780601f1061131757610100808354040283529160200191611342565b820191906000526020600020905b81548152906001019060200180831161132557829003601f168201915b505050505081565b600061135e6009546001600160a01b031690565b6001600160a01b0316336001600160a01b031614905090565b6000828152600f60205260409020805461139090612943565b1590506113d15760405162461bcd60e51b815260206004820152600f60248201526e15549248185b1c9958591e481cd95d608a1b6044820152606401610651565b6000828152600f6020526040902061097082826129cb565b6000546001600160a01b03841661141257604051622e076360e81b815260040160405180910390fd5b826000036114335760405163b562e8dd60e01b815260040160405180910390fd5b6001600160a01b038416600081815260056020908152604080832080546fffffffffffffffffffffffffffffffff1981166001600160401b038083168b0181169182176801000000000000000067ffffffffffffffff1990941690921783900481168b01811690920217909155858452600490925290912080546001600160e01b0319168317600160a01b42909316929092029190911790558190818501903b15611549575b60405182906001600160a01b03881690600090600080516020612fba833981519152908290a46115126000878480600101955087611f0c565b61152f576040516368d2bf6b60e11b815260040160405180910390fd5b8082106114d957826000541461154457600080fd5b61157c565b5b6040516001830192906001600160a01b03881690600090600080516020612fba833981519152908290a480821061154a575b5060009081556107a69085838684565b6000805482108015610813575050600090815260046020526040902054600160e01b900460ff161590565b60008281526006602052604080822080546001600160a01b0319166001600160a01b0387811691821790925591518593918516917f8c5be1e5ebec7d5bd14f71427d1e84f3dd0314c0f7b2291e5b200ac8c7c3b92591a4505050565b600980546001600160a01b038381166001600160a01b0319831681179093556040519116919082907f8292fce18fa69edf4db7b94ea2e58241df0ae57f97e0a6c9b29067028bf92d7690600090a35050565b600061167082611bc4565b9050836001600160a01b031681600001516001600160a01b0316146116a75760405162a1148160e81b815260040160405180910390fd5b6000336001600160a01b03861614806116c557506116c585336105d9565b806116e05750336116d5846108ab565b6001600160a01b0316145b90508061170057604051632ce44b5f60e11b815260040160405180910390fd5b6001600160a01b03841661172757604051633a954ecd60e21b815260040160405180910390fd5b611733600084876115b7565b6001600160a01b038581166000908152600560209081526040808320805467ffffffffffffffff198082166001600160401b0392831660001901831617909255898616808652838620805493841693831660019081018416949094179055898652600490945282852080546001600160e01b031916909417600160a01b4290921691909102178355870180845292208054919390911661180757600054821461180757805460208601516001600160401b0316600160a01b026001600160e01b03199091166001600160a01b038a16171781555b50505082846001600160a01b0316866001600160a01b0316600080516020612fba83398151915260405160405180910390a45050505050565b6060816000036118675750506040805180820190915260018152600360fc1b602082015290565b8160005b8115611891578061187b81612cf5565b915061188a9050600a83612af5565b915061186b565b6000816001600160401b038111156118ab576118ab61243e565b6040519080825280601f01601f1916602001820160405280156118d5576020820181803683370190505b509050815b8515611962576118eb600182612e91565b905060006118fa600a88612af5565b61190590600a612ade565b61190f9088612e91565b61191a906030612ea4565b905060008160f81b90508084848151811061193757611937612ab2565b60200101906001600160f81b031916908160001a905350611959600a89612af5565b975050506118da565b50949350505050565b600061197683611bc4565b805190915082156119dc576000336001600160a01b038316148061199f575061199f82336105d9565b806119ba5750336119af866108ab565b6001600160a01b0316145b9050806119da57604051632ce44b5f60e11b815260040160405180910390fd5b505b6119e8600085836115b7565b6001600160a01b0380821660008181526005602090815260408083208054600160801b6000196001600160401b0380841691909101811667ffffffffffffffff198416811783900482166001908101831690930277ffffffffffffffff0000000000000000ffffffffffffffff19909416179290921783558b86526004909452828520805460ff60e01b1942909316600160a01b026001600160e01b03199091169097179690961716600160e01b178555918901808452922080549194909116611ae6576000548214611ae657805460208701516001600160401b0316600160a01b026001600160e01b03199091166001600160a01b038716171781555b5050604051869250600091506001600160a01b03841690600080516020612fba833981519152908390a4505060018054810190555050565b612710811115611b625760405162461bcd60e51b815260206004820152600f60248201526e45786365656473206d61782062707360881b6044820152606401610651565b600a80546001600160a01b0384166001600160b01b03199091168117600160a01b61ffff851602179091556040518281527f90d7ec04bcb8978719414f82e52e4cb651db41d0e6f8cea6118c2191e6183adb9060200160405180910390a25050565b604080516060810182526000808252602082018190529181019190915281600054811015611cc557600081815260046020908152604091829020825160608101845290546001600160a01b0381168252600160a01b81046001600160401b031692820192909252600160e01b90910460ff16151591810182905290611cc35780516001600160a01b031615611c5a579392505050565b5060001901600081815260046020908152604091829020825160608101845290546001600160a01b038116808352600160a01b82046001600160401b031693830193909352600160e01b900460ff1615159281019290925215611cbe579392505050565b611c5a565b505b604051636f96cda160e11b815260040160405180910390fd5b600080611ceb8486612d2a565b600c8054600181019091557fdf6966c971051c3d54ec59162606531493a51404a002842f56009d7e5cf4a8c7018190556000818152600d60205260409020909250829150611d3984826129cb565b50935093915050565b600060088054611d5190612943565b80601f0160208091040260200160405190810160405280929190818152602001828054611d7d90612943565b8015611dca5780601f10611d9f57610100808354040283529160200191611dca565b820191906000526020600020905b815481529060010190602001808311611dad57829003601f168201915b505050505090508160089081611de091906129cb565b507fc9c7c3fe08b88b4df9d4d47ef47d2c43d55c025a0ba88ca442580ed9e7348a168183604051611e12929190612ebd565b60405180910390a15050565b612710811115611e625760405162461bcd60e51b815260206004820152600f60248201526e45786365656473206d61782062707360881b6044820152606401610651565b6040805180820182526001600160a01b0384811680835260208084018681526000898152600b8352869020945185546001600160a01b031916941693909317845591516001909301929092559151838152909185917f7365cf4122f072a3365c20d54eff9b38d73c096c28e1892ec8f5b0e403a0f12d910160405180910390a3505050565b6060610cda8383604051806060016040528060278152602001612f93602791396122e4565b604051630a85bd0160e11b81526000906001600160a01b0385169063150b7a0290611f41903390899088908890600401612eeb565b6020604051808303816000875af1925050508015611f7c575060408051601f3d908101601f19168201909252611f7991810190612f1e565b60015b611fda573d808015611faa576040519150601f19603f3d011682016040523d82523d6000602084013e611faf565b606091505b508051600003611fd2576040516368d2bf6b60e11b815260040160405180910390fd5b805181602001fd5b6001600160e01b031916630a85bd0160e11b149050949350505050565b60606000612006836002612ade565b612011906002612d2a565b6001600160401b038111156120285761202861243e565b6040519080825280601f01601f191660200182016040528015612052576020820181803683370190505b509050600360fc1b8160008151811061206d5761206d612ab2565b60200101906001600160f81b031916908160001a905350600f60fb1b8160018151811061209c5761209c612ab2565b60200101906001600160f81b031916908160001a90535060006120c0846002612ade565b6120cb906001612d2a565b90505b6001811115612143576f181899199a1a9b1b9c1cb0b131b232b360811b85600f16601081106120ff576120ff612ab2565b1a60f81b82828151811061211557612115612ab2565b60200101906001600160f81b031916908160001a90535060049490941c9361213c81612f3b565b90506120ce565b508315610cda5760405162461bcd60e51b815260206004820181905260248201527f537472696e67733a20686578206c656e67746820696e73756666696369656e746044820152606401610651565b606081516000036121b157505060408051602081019091526000815290565b6000604051806060016040528060408152602001612f5360409139905060006003845160026121e09190612d2a565b6121ea9190612af5565b6121f5906004612ade565b6001600160401b0381111561220c5761220c61243e565b6040519080825280601f01601f191660200182016040528015612236576020820181803683370190505b509050600182016020820185865187015b808210156122a2576003820191508151603f8160121c168501518453600184019350603f81600c1c168501518453600184019350603f8160061c168501518453600184019350603f8116850151845350600183019250612247565b50506003865106600181146122be57600281146122d1576122d9565b603d6001830353603d60028303536122d9565b603d60018303535b509195945050505050565b60606001600160a01b0384163b61234c5760405162461bcd60e51b815260206004820152602660248201527f416464726573733a2064656c65676174652063616c6c20746f206e6f6e2d636f6044820152651b9d1c9858dd60d21b6064820152608401610651565b600080856001600160a01b0316856040516123679190612d0e565b600060405180830381855af49150503d80600081146123a2576040519150601f19603f3d011682016040523d82523d6000602084013e6123a7565b606091505b50915091506123b78282866123c1565b9695505050505050565b606083156123d0575081610cda565b8251156123e05782518084602001fd5b8160405162461bcd60e51b815260040161065191906125b0565b604051806101400160405280600a905b606081526020019060019003908161240a5790505090565b80356001600160a01b038116811461243957600080fd5b919050565b634e487b7160e01b600052604160045260246000fd5b600082601f83011261246557600080fd5b81356001600160401b038082111561247f5761247f61243e565b604051601f8301601f19908116603f011681019082821181831017156124a7576124a761243e565b816040528381528660208588010111156124c057600080fd5b836020870160208301376000602085830101528094505050505092915050565b600080604083850312156124f357600080fd5b6124fc83612422565b915060208301356001600160401b0381111561251757600080fd5b61252385828601612454565b9150509250929050565b6001600160e01b0319811681146109a257600080fd5b60006020828403121561255557600080fd5b8135610cda8161252d565b60005b8381101561257b578181015183820152602001612563565b50506000910152565b6000815180845261259c816020860160208601612560565b601f01601f19169290920160200192915050565b602081526000610cda6020830184612584565b6000602082840312156125d557600080fd5b5035919050565b600080604083850312156125ef57600080fd5b6125f883612422565b946020939093013593505050565b60006020828403121561261857600080fd5b610cda82612422565b60008060006060848603121561263657600080fd5b61263f84612422565b925061264d60208501612422565b9150604084013590509250925092565b6000806040838503121561267057600080fd5b50508035926020909101359150565b60006020828403121561269157600080fd5b81356001600160401b038111156126a757600080fd5b610bf584828501612454565b600080600080608085870312156126c957600080fd5b6126d285612422565b93506020850135925060408501356001600160401b03808211156126f557600080fd5b61270188838901612454565b9350606087013591508082111561271757600080fd5b5061272487828801612454565b91505092959194509250565b60008060006060848603121561274557600080fd5b8335925061264d60208501612422565b6000806040838503121561276857600080fd5b61277183612422565b91506020830135801515811461278657600080fd5b809150509250929050565b600080602083850312156127a457600080fd5b82356001600160401b03808211156127bb57600080fd5b818501915085601f8301126127cf57600080fd5b8135818111156127de57600080fd5b8660208260051b85010111156127f357600080fd5b60209290920196919550909350505050565b6000602080830181845280855180835260408601915060408160051b870101925083870160005b8281101561285a57603f19888603018452612848858351612584565b9450928501929085019060010161282c565b5092979650505050505050565b6000806000806080858703121561287d57600080fd5b61288685612422565b935061289460208601612422565b92506040850135915060608501356001600160401b038111156128b657600080fd5b61272487828801612454565b6020808252600090610160830183820185845b600a81101561290457601f198785030183526128f2848351612584565b935091840191908401906001016128d5565b50919695505050505050565b6000806040838503121561292357600080fd5b61292c83612422565b915061293a60208401612422565b90509250929050565b600181811c9082168061295757607f821691505b60208210810361297757634e487b7160e01b600052602260045260246000fd5b50919050565b601f82111561097057600081815260208120601f850160051c810160208610156129a45750805b601f850160051c820191505b818110156129c3578281556001016129b0565b505050505050565b81516001600160401b038111156129e4576129e461243e565b6129f8816129f28454612943565b8461297d565b602080601f831160018114612a2d5760008415612a155750858301515b600019600386901b1c1916600185901b1785556129c3565b600085815260208120601f198616915b82811015612a5c57888601518255948401946001909101908401612a3d565b5085821015612a7a5787850151600019600388901b60f8161c191681555b5050505050600190811b01905550565b6020808252600e908201526d139bdd08185d5d1a1bdc9a5e995960921b604082015260600190565b634e487b7160e01b600052603260045260246000fd5b634e487b7160e01b600052601160045260246000fd5b808202811582820484141761081357610813612ac8565b600082612b1257634e487b7160e01b600052601260045260246000fd5b500490565b7f3c7376672077696474683d27333530707827206865696768743d27333530707881527f2720786d6c6e733d27687474703a2f2f7777772e77332e6f72672f323030302f60208201526439bb33939f60d91b60408201527f3c6c696e6561724772616469656e742069643d276772616469656e7427202078604582015261313d60f01b606582015260008351612bb4816067850160208801612560565b646475723d2760d81b6067918401918201528351612bd981606c840160208801612560565b7f6d732720626567696e3d2730732720726570656174436f756e743d27696e6465606c92909101918201527f66696e69746527202f3e3c2f73746f703e3c2f6c696e6561724772616469656e608c8201527f743e3c7265637420783d2738302720793d273830272069643d2773686170652760ac8201527f2077696474683d2732303027206865696768743d27323030272066696c6c3d2760cc8201527f75726c28236772616469656e7429272f3e3c2f7376673e00000000000000000060ec82015261010301949350505050565b6000808335601e19843603018112612cbf57600080fd5b8301803591506001600160401b03821115612cd957600080fd5b602001915036819003821315612cee57600080fd5b9250929050565b600060018201612d0757612d07612ac8565b5060010190565b60008251612d20818460208701612560565b9190910192915050565b8082018082111561081357610813612ac8565b6a7b226e616d65223a20222360a81b81528351600090612d6481600b850160208901612560565b61088b60f21b600b9184019182018190527f22696d616765223a2022646174613a696d6167652f7376672b786d6c3b626173600d83015263194d8d0b60e21b602d8301528551612dbb816031850160208a01612560565b60319201918201527f2261747472696275746573223a205b7b2274726169745f74797065223a20226460338201527f75726174696f6e5f6d73222c202276616c7565223a202200000000000000000060538201528351612e2281606a840160208801612560565b6222207d60e81b9101606a810191909152615d7d60f01b606d820152606f81019695505050505050565b7f646174613a6170706c69636174696f6e2f6a736f6e3b6261736536342c000000815260008251612e8481601d850160208701612560565b91909101601d0192915050565b8181038181111561081357610813612ac8565b60ff818116838216019081111561081357610813612ac8565b604081526000612ed06040830185612584565b8281036020840152612ee28185612584565b95945050505050565b6001600160a01b03858116825284166020820152604081018390526080606082018190526000906123b790830184612584565b600060208284031215612f3057600080fd5b8151610cda8161252d565b600081612f4a57612f4a612ac8565b50600019019056fe4142434445464748494a4b4c4d4e4f505152535455565758595a6162636465666768696a6b6c6d6e6f707172737475767778797a303132333435363738392b2f416464726573733a206c6f772d6c6576656c2064656c65676174652063616c6c206661696c6564ddf252ad1be2c89b69c2b068fc378daa952ba7f163c4a11628f55a4df523b3efa2646970667358221220edf7de85d4e1aedf8e7bfea3335346bd62d4dce8a07719bd05c37d23e45bfc2964736f6c63430008140033273025272079313d2731313025272078323d273025272079323d273025273e3c73746f70206f66667365743d27353525272073746f702d636f6c6f723d27626c61636b273e3c616e696d617465206174747269627574654e616d653d2773746f702d636f6c6f72272076616c7565733d277265643b20677265656e3b20626c75653b20677261793b626c61636b27206475723d27353030306d732720626567696e3d2730732720726570656174436f756e743d27696e646566696e69746527202f3e3c2f73746f703e3c73746f70206f66667365743d27323025272073746f702d636f6c6f723d27726564273e3c616e696d617465206174747269627574654e616d653d2773746f702d636f6c6f72272076616c7565733d27626c61636b3b207265643b20677265656e3b20626c61636b27202731323325272079313d2731353025272078323d27313025272079323d2731323025273e3c73746f70206f66667365743d27313025272073746f702d636f6c6f723d27626c61636b273e3c616e696d617465206174747269627574654e616d653d2773746f702d636f6c6f72272076616c7565733d27233762386539633b20233835393964343b20236261323935323b20236261613432393b20626c61636b27206475723d27343730306d732720626567696e3d2733732720726570656174436f756e743d27696e646566696e69746527202f3e3c2f73746f703e3c73746f70206f66667365743d2731333025272073746f702d636f6c6f723d2723376238653963273e3c616e696d617465206174747269627574654e616d653d2773746f702d636f6c6f72272076616c7565733d2779656c6c6f773b20233762386539633b20236261613432393b20233835393964343b20236261323935323b202720273025272079313d2731303025272078323d273025272079323d27323025273e3c73746f70206f66667365743d27353525272073746f702d636f6c6f723d27626c61636b273e3c616e696d617465206174747269627574654e616d653d2773746f702d636f6c6f72272076616c7565733d277265643b20677265656e3b20626c75653b20677261793b626c61636b27206475723d27313730306d732720626567696e3d2730732720726570656174436f756e743d27696e646566696e69746527202f3e3c2f73746f703e3c73746f70206f66667365743d2731323025272073746f702d636f6c6f723d27726564273e3c616e696d617465206174747269627574654e616d653d2773746f702d636f6c6f72272076616c7565733d27626c61636b3b207265643b2079656c6c6f773b20677265656e3b20626c61636b272027313025272079313d27353625272078323d27333025272079323d273025273e3c73746f70206f66667365743d27353525272073746f702d636f6c6f723d277768697465273e3c616e696d617465206174747269627574654e616d653d2773746f702d636f6c6f72272076616c7565733d2777686974653b2079656c6c6f773b20626c75653b20677261793b20626c61636b27206475723d27353030306d732720626567696e3d2733732720726570656174436f756e743d27696e646566696e69746527202f3e3c2f73746f703e3c73746f70206f66667365743d2731323025272073746f702d636f6c6f723d27626c61636b273e3c616e696d617465206174747269627574654e616d653d2773746f702d636f6c6f72272076616c7565733d27626c61636b3b207265643b20677265656e3b20626c61636b272027313025272079313d2732313025272078323d27313025272079323d27373025273e3c73746f70206f66667365743d27373525272073746f702d636f6c6f723d2723336430303939273e3c616e696d617465206174747269627574654e616d653d2773746f702d636f6c6f72272076616c7565733d27236439383037393b2020236666383062663b202023233761643632663b2020233364303039393b20233636626137322020233030616166663b202335666165653320626c61636b27206475723d27383030306d732720626567696e3d2733732720726570656174436f756e743d27696e646566696e69746527202f3e3c2f73746f703e3c73746f70206f66667365743d2731303025272073746f702d636f6c6f723d277768697465273e3c616e696d617465206174747269627574654e616d653d2773746f702d636f6c6f72272076616c7565733d2777686974653b2023233761643632663b2020233364303039393b20233636626137323b272027363025272079313d27313025272078323d273525272079323d27363025273e3c73746f70206f66667365743d27313125272073746f702d636f6c6f723d27626c61636b273e3c616e696d617465206174747269627574654e616d653d2773746f702d636f6c6f72272076616c7565733d277265643b20677265656e3b2077686974653b20626c75653b20677261793b20626c61636b27206475723d27333730306d732720626567696e3d2730732720726570656174436f756e743d27696e646566696e69746527202f3e3c2f73746f703e3c73746f70206f66667365743d2731313025272073746f702d636f6c6f723d27726564273e3c616e696d617465206174747269627574654e616d653d2773746f702d636f6c6f72272076616c7565733d27626c61636b3b207265643b20677261793b2079656c6c6f773b206e6176793b20677265656e3b20626c61636b272027323325272079313d273025272078323d27353225272079323d273025273e3c73746f70206f66667365743d2731313025272073746f702d636f6c6f723d27626c61636b273e3c616e696d617465206174747269627574654e616d653d2773746f702d636f6c6f72272076616c7565733d27233762386539633b20233835393964343b20236261323935323b20236261613432393b20626c61636b27206475723d27343730306d732720626567696e3d2733732720726570656174436f756e743d27696e646566696e69746527202f3e3c2f73746f703e3c73746f70206f66667365743d2731353025272073746f702d636f6c6f723d2723626132393532273e3c616e696d617465206174747269627574654e616d653d2773746f702d636f6c6f72272076616c7565733d27233762386539633b20236261613432393b20233835393964343b20236261323935323b20272027313025272079313d27313025272078323d27353025272079323d273025273e3c73746f70206f66667365743d273525272073746f702d636f6c6f723d27626c61636b273e3c616e696d617465206174747269627574654e616d653d2773746f702d636f6c6f72272076616c7565733d277265643b20677265656e3b20626c75653b20677261793b20626c61636b27206475723d27333730306d732720626567696e3d2730732720726570656174436f756e743d27696e646566696e69746527202f3e3c2f73746f703e3c73746f70206f66667365743d27383025272073746f702d636f6c6f723d27726564273e3c616e696d617465206174747269627574654e616d653d2773746f702d636f6c6f72272076616c7565733d27626c61636b3b207265643b20677265656e3b20626c61636b272027313025272079313d27373025272078323d27363025272079323d27333025273e3c73746f70206f66667365743d27353025272073746f702d636f6c6f723d27626c61636b273e3c616e696d617465206174747269627574654e616d653d2773746f702d636f6c6f72272076616c7565733d277265643b20677265656e3b20626c75653b20677261793b626c61636b27206475723d27333730306d732720626567696e3d2730732720726570656174436f756e743d27696e646566696e69746527202f3e3c2f73746f703e3c73746f70206f66667365743d27313525272073746f702d636f6c6f723d27726564273e3c616e696d617465206174747269627574654e616d653d2773746f702d636f6c6f72272076616c7565733d27626c61636b3b207265643b2079656c6c6f773b2062726f776e3b20677265656e3b20626c75653b20626c61636b272027343025272079313d273025272078323d27333025272079323d273025273e3c73746f70206f66667365743d273525272073746f702d636f6c6f723d27626c61636b273e3c616e696d617465206174747269627574654e616d653d2773746f702d636f6c6f72272076616c7565733d277265643b20677265656e3b20626c75653b20677261793b626c61636b27206475723d27333730306d732720626567696e3d2730732720726570656174436f756e743d27696e646566696e69746527202f3e3c2f73746f703e3c73746f70206f66667365743d2731383025272073746f702d636f6c6f723d27726564273e3c616e696d617465206174747269627574654e616d653d2773746f702d636f6c6f72272076616c7565733d27626c61636b3b207265643b20677265656e3b20626c61636b2720273025272079313d2731313025272078323d273025272079323d273025273e3c73746f70206f66667365743d27373525272073746f702d636f6c6f723d27726564273e3c616e696d617465206174747269627574654e616d653d2773746f702d636f6c6f72272076616c7565733d277265643b206e6176793b2077686974653b20677265656e3b20626c75653b20677261793b626c61636b27206475723d27353030306d732720626567696e3d2730732720726570656174436f756e743d27696e646566696e69746527202f3e3c2f73746f703e3c73746f70206f66667365743d2731323025272073746f702d636f6c6f723d27677265656e273e3c616e696d617465206174747269627574654e616d653d2773746f702d636f6c6f72272076616c7565733d2777686974653b20626c61636b3b207265643b20677265656e3b20626c61636b272027313025272079313d27333025272078323d27363025272079323d27333025273e3c73746f70206f66667365743d273525272073746f702d636f6c6f723d2779656c6c6f77273e3c616e696d617465206174747269627574654e616d653d2773746f702d636f6c6f72272076616c7565733d277265643b20677265656e3b20626c75653b20677261793b20626c61636b3b20626c75653b2079656c6c6f7727206475723d27333730306d732720626567696e3d2730732720726570656174436f756e743d27696e646566696e69746527202f3e3c2f73746f703e3c73746f70206f66667365743d27373225272073746f702d636f6c6f723d27726564273e3c616e696d617465206174747269627574654e616d653d2773746f702d636f6c6f72272076616c7565733d27626c61636b3b207265643b2079656c6c6f773b2062726f776e3b20677265656e3b20626c75653b20626c61636b27202731343725272079313d2731333025272078323d2731313625272079323d27313925273e3c73746f70206f66667365743d27393725272073746f702d636f6c6f723d277768697465273e3c616e696d617465206174747269627574654e616d653d2773746f702d636f6c6f72272076616c7565733d277265643b20626c75653b2077686974653b20677265656e3b20626c75653b20677261793b20626c61636b3b20776869746527206475723d27383730306d732720626567696e3d2732732720726570656174436f756e743d27696e646566696e69746527202f3e3c2f73746f703e3c73746f70206f66667365743d273225272073746f702d636f6c6f723d27626c61636b273e3c616e696d617465206174747269627574654e616d653d2773746f702d636f6c6f72272076616c7565733d27626c61636b3b207265643b2079656c6c6f773b2020677265656e3b20626c75653b20626c61636b272027343725272079313d2731333025272078323d27313625272079323d27363625273e3c73746f70206f66667365743d27393725272073746f702d636f6c6f723d27677265656e273e3c616e696d617465206174747269627574654e616d653d2773746f702d636f6c6f72272076616c7565733d277265643b20626c75653b2077686974653b20677265656e3b20626c75653b20677261793b20626c61636b27206475723d27393730306d732720626567696e3d2735732720726570656174436f756e743d27696e646566696e69746527202f3e3c2f73746f703e3c73746f70206f66667365743d27323025272073746f702d636f6c6f723d27626c61636b273e3c616e696d617465206174747269627574654e616d653d2773746f702d636f6c6f72272076616c7565733d27626c61636b3b207265643b2079656c6c6f773b2020677265656e3b20626c75653b20626c61636b2720273025272079313d27313425272078323d27313025272079323d27313025273e3c73746f70206f66667365743d27353525272073746f702d636f6c6f723d27726564273e3c616e696d617465206174747269627574654e616d653d2773746f702d636f6c6f72272076616c7565733d277265643b206e6176793b2077686974653b20677265656e3b20626c75653b20677261793b626c61636b27206475723d27353030306d732720626567696e3d2730732720726570656174436f756e743d27696e646566696e69746527202f3e3c2f73746f703e3c73746f70206f66667365743d27333025272073746f702d636f6c6f723d277768697465273e3c616e696d617465206174747269627574654e616d653d2773746f702d636f6c6f72272076616c7565733d2777686974653b20626c61636b3b207265643b20677265656e3b20626c61636b272027363025272079313d2731393025272078323d27313025272079323d27373025273e3c73746f70206f66667365743d27393025272073746f702d636f6c6f723d27726564273e3c616e696d617465206174747269627574654e616d653d2773746f702d636f6c6f72272076616c7565733d277265643b2020236666383062663b2020236336316166663b2020233364303039393b2020233030616166663b20626c61636b27206475723d27353030306d732720626567696e3d2732732720726570656174436f756e743d27696e646566696e69746527202f3e3c2f73746f703e3c73746f70206f66667365743d27323425272073746f702d636f6c6f723d277768697465273e3c616e696d617465206174747269627574654e616d653d2773746f702d636f6c6f72272076616c7565733d2777686974653b20236336316166663b2020233364303039393b207265643b27202731303025272079313d27313925272078323d27313025272079323d27313025273e3c73746f70206f66667365743d27353925272073746f702d636f6c6f723d27726564273e3c616e696d617465206174747269627574654e616d653d2773746f702d636f6c6f72272076616c7565733d277265643b202077686974653b20626c61636b27206475723d27353030306d732720626567696e3d2737732720726570656174436f756e743d27696e646566696e69746527202f3e3c2f73746f703e3c73746f70206f66667365743d273325272073746f702d636f6c6f723d277768697465273e3c616e696d617465206174747269627574654e616d653d2773746f702d636f6c6f72272076616c7565733d2777686974653b20626c61636b3b207265643b20677265656e3b20626c61636b272027363025272079313d2731373025272078323d27313025272079323d27373025273e3c73746f70206f66667365743d27383025272073746f702d636f6c6f723d27726564273e3c616e696d617465206174747269627574654e616d653d2773746f702d636f6c6f72272076616c7565733d277265643b2020236666383062663b2020236336316166663b2020233364303039393b2020233030616166663b20626c61636b27206475723d27353030306d732720626567696e3d2732732720726570656174436f756e743d27696e646566696e69746527202f3e3c2f73746f703e3c73746f70206f66667365743d2731323425272073746f702d636f6c6f723d277768697465273e3c616e696d617465206174747269627574654e616d653d2773746f702d636f6c6f72272076616c7565733d2777686974653b20236336316166663b2020233364303039393b207265643b272027363025272079313d27373025272078323d27313025272079323d273025273e3c73746f70206f66667365743d27373025272073746f702d636f6c6f723d27726564273e3c616e696d617465206174747269627574654e616d653d2773746f702d636f6c6f72272076616c7565733d277265643b2020236666383062663b2020236336316166663b2020233364303039393b2020233030616166663b20626c61636b27206475723d27353030306d732720626567696e3d2732732720726570656174436f756e743d27696e646566696e69746527202f3e3c2f73746f703e3c73746f70206f66667365743d2731323425272073746f702d636f6c6f723d277768697465273e3c616e696d617465206174747269627574654e616d653d2773746f702d636f6c6f72272076616c7565733d2777686974653b20236336316166663b2020233364303039393b207265643b2720273025272079313d2731313025272078323d273025272079323d273025273e3c73746f70206f66667365743d273525272073746f702d636f6c6f723d27726564273e3c616e696d617465206174747269627574654e616d653d2773746f702d636f6c6f72272076616c7565733d277265643b206e6176793b2077686974653b20677265656e3b20626c75653b20677261793b626c61636b27206475723d27353030306d732720626567696e3d2730732720726570656174436f756e743d27696e646566696e69746527202f3e3c2f73746f703e3c73746f70206f66667365743d27313025272073746f702d636f6c6f723d27677265656e273e3c616e696d617465206174747269627574654e616d653d2773746f702d636f6c6f72272076616c7565733d2777686974653b20626c61636b3b207265643b20677265656e3b20626c61636b272027313025272079313d27373025272078323d27363025272079323d27333025273e3c73746f70206f66667365743d27353025272073746f702d636f6c6f723d27626c61636b273e3c616e696d617465206174747269627574654e616d653d2773746f702d636f6c6f72272076616c7565733d277265643b20626c75653b20677265656e3b20626c75653b20677261793b20626c61636b27206475723d27333730306d732720626567696e3d2730732720726570656174436f756e743d27696e646566696e69746527202f3e3c2f73746f703e3c73746f70206f66667365743d2731303525272073746f702d636f6c6f723d27726564273e3c616e696d617465206174747269627574654e616d653d2773746f702d636f6c6f72272076616c7565733d27626c61636b3b207265643b2079656c6c6f773b2020677265656e3b20626c75653b20626c61636b2720273025272079313d2731303025272078323d273025272079323d273025273e3c73746f70206f66667365743d27323525272073746f702d636f6c6f723d27626c61636b273e3c616e696d617465206174747269627574654e616d653d2773746f702d636f6c6f72272076616c7565733d277265643b20677265656e3b20626c75653b20677261793b626c61636b27206475723d27333730306d732720626567696e3d2730732720726570656174436f756e743d27696e646566696e69746527202f3e3c2f73746f703e3c73746f70206f66667365743d27333525272073746f702d636f6c6f723d27726564273e3c616e696d617465206174747269627574654e616d653d2773746f702d636f6c6f72272076616c7565733d27626c61636b3b207265643b2079656c6c6f773b2062726f776e3b20677265656e3b20626c61636b27202731363025272079313d2731373025272078323d27313025272079323d27373025273e3c73746f70206f66667365743d27373025272073746f702d636f6c6f723d27626c61636b273e3c616e696d617465206174747269627574654e616d653d2773746f702d636f6c6f72272076616c7565733d277265643b2020236666383062663b2020236336316166663b2020233364303039393b2020233030616166663b20626c61636b27206475723d27353030306d732720626567696e3d2733732720726570656174436f756e743d27696e646566696e69746527202f3e3c2f73746f703e3c73746f70206f66667365743d2731323425272073746f702d636f6c6f723d277768697465273e3c616e696d617465206174747269627574654e616d653d2773746f702d636f6c6f72272076616c7565733d2777686974653b20236336316166663b2020233364303039393b207265643b2720",
    "linkReferences": {}
  },
  "methodIdentifiers": {
    "approve(address,uint256)": "095ea7b3",
    "balanceOf(address)": "70a08231",
    "batchFrozen(uint256)": "83040532",
    "batchMintTo(address,uint256,string,bytes)": "754a81d9",
    "burn(uint256)": "42966c68",
    "contractURI()": "e8a3d485",
    "dfChangeDuration(uint256,uint256)": "a2baae58",
    "getApproved(uint256)": "081812fc",
    "getBaseURICount()": "63b45e2d",
    "getBatchIdAtIndex(uint256)": "2419f51b",
    "getDefaultRoyaltyInfo()": "b24f2d39",
    "getRoyaltyInfoForToken(uint256)": "4cc157df",
    "getTokenData(uint256)": "b09afec1",
    "isApprovedForAll(address,address)": "e985e9c5",
    "isApprovedOrOwner(address,uint256)": "430c2081",
    "makeSVG(uint256)": "2baf20ac",
    "mintTo(address,string)": "0075a317",
    "multicall(bytes[])": "ac9650d8",
    "name()": "06fdde03",
    "nextTokenIdToMint()": "3b1475a7",
    "owner()": "8da5cb5b",
    "ownerOf(uint256)": "6352211e",
    "royaltyInfo(uint256,uint256)": "2a55205a",
    "safeTransferFrom(address,address,uint256)": "42842e0e",
    "safeTransferFrom(address,address,uint256,bytes)": "b88d4fde",
    "setApprovalForAll(address,bool)": "a22cb465",
    "setContractURI(string)": "938e3d7b",
    "setDefaultRoyaltyInfo(address,uint256)": "600dd5ea",
    "setOwner(address)": "13af4035",
    "setRoyaltyInfoForToken(uint256,address,uint256)": "9bcf7a15",
    "splitHash(string)": "c1709d92",
    "supportsInterface(bytes4)": "01ffc9a7",
    "symbol()": "95d89b41",
    "toUint256(string)": "70121b71",
    "tokenURI(uint256)": "c87b56dd",
    "totalSupply()": "18160ddd",
    "transferFrom(address,address,uint256)": "23b872dd"
  },
  "id": 43
}